:100000000C94E9000C9411010C9411010C94110151
:100010000C9411010C9411010C9411010C94110118
:100020000C9411010C9411010C9411010C94110108
:100030000C9411010C9411010C9411010C941101F8
:100040000C94C3070C9411010C9491070C946B074A
:100050000C9411010C9411010C9411010C941101D8
:100060000C9411010C941101638253630001080088
:100070000604000100000000240027002A00000000
:100080000000250028002B000404040404040404D8
:100090000202020202020303030303030102040833
:1000A00010204080010204081020010204081020E2
:1000B0000000000800020100000304070000000027
:1000C0000000000045000082000040002048545419
:1000D000502F312E302035303320536572766963CE
:1000E0006520556E617661696C61626C650D0A43CD
:1000F0006F6E74656E742D547970653A20746578EE
:10010000742F68746D6C0D0A52657472792D416696
:100110007465723A203630300D0A0D0A3C68746DF1
:100120006C3E3C686561643E3C7469746C653E423B
:10013000696F6461746120446972693C2F746974E9
:100140006C653E3C2F686561643E3C626F64793E3D
:100150003C68333E41676E617220427269616E7421
:10016000616D61205269646877616E756C6C61685D
:100170003C2F68333E56333932303030333C627274
:10018000202F3E3132204A756C6920323030313CAC
:100190006272202F3E61676E6172627269616E7475
:1001A000616D6132354073747564656E742E756E61
:1001B000732E61632E69643C2F656D3E3C2F703E4B
:1001C0003C2F626F64793E3C2F68746D6C3E00007A
:1001D000080E11241FBECFEFD8E0DEBFCDBF11E067
:1001E000A0E0B1E0EEE1FDE102C005900D92AE3875
:1001F000B107D9F724E0AEE8B1E001C01D92A33801
:10020000B207E1F710E0C9EED0E004C02197FE018B
:100210000E946B0EC83ED107C9F70E940D080C94CE
:100220008D0E0C940000CF93DF932091E2032223E4
:10023000C1F0FC0120812223A1F0C2EED3E0AEED9B
:10024000B3E09C012C5F3F4F899141919D918427A0
:10025000892339F4E217F307B9F781E0DF91CF91F1
:10026000089580E0FBCFAF92BF92CF92DF92EF92E2
:10027000FF920F931F93CF93DF936C017B018B0150
:10028000040F151FEB015E01AE18BF08C017D107A0
:1002900059F06991D601ED91FC910190F081E02D2A
:1002A000C6010995892B79F7C501DF91CF911F917F
:1002B0000F91FF90EF90DF90CF90BF90AF90089597
:1002C000FC01538D448D252F30E0842F90E0821B5C
:1002D000930B541710F0CF96089501970895FC01E1
:1002E000918D828D981761F0A28DAE0FBF2FB11D39
:1002F0005D968C91928D9F5F9F73928F90E0089591
:100300008FEF9FEF0895FC01918D828D981731F04A
:10031000828DE80FF11D858D90E008958FEF9FEF9E
:100320000895FC01918D228D892F90E0805C9F4F74
:10033000821B91098F739927089586EE93E00E949E
:10034000910121E0892B09F420E0822F089580E0BB
:1003500090E0892B29F00E949D0181110C940000EE
:100360000895FC01A48DA80FB92FB11DA35ABF4F4A
:100370002C91848D90E001968F739927848FA689A4
:10038000B7892C93A089B1898C91837080648C93F8
:10039000938D848D981306C00288F389E02D8081A7
:1003A0008F7D80830895EF92FF920F931F93CF93D9
:1003B000DF93EC0181E0888F9B8D8C8D98131AC0A0
:1003C000E889F989808185FF15C09FB7F894EE8987
:1003D000FF896083E889F9898081837080648083E4
:1003E0009FBF81E090E0DF91CF911F910F91FF902F
:1003F000EF900895F62E0B8D10E00F5F1F4F0F73D7
:100400001127E02E8C8D8E110CC00FB607FCFACF91
:10041000E889F989808185FFF5CFCE010E94B1017D
:10042000F1CFEB8DEC0FFD2FF11DE35AFF4FF08262
:100430009FB7F8940B8FEA89FB8980818062CFCFC8
:10044000CF93DF93EC01888D8823B9F0AA89BB890B
:10045000E889F9898C9185FD03C0808186FD0DC0F6
:100460000FB607FCF7CF8C9185FFF2CF808185FF17
:10047000EDCFCE010E94B101E9CFDF91CF91089578
:1004800090E0FC01E055FF4F2491FC01E456FF4F42
:100490003491FC01E857FF4FE491EE23C9F0222389
:1004A00039F0233001F1A8F4213019F1223029F17B
:1004B000F0E0EE0FFF1FE258FF4FA591B4918FB708
:1004C000F894EC91611126C030953E233C938FBF88
:1004D00008952730A9F02830C9F0243049F78091D9
:1004E00080008F7D03C0809180008F778093800093
:1004F000DFCF84B58F7784BDDBCF84B58F7DFBCF15
:100500008091B0008F778093B000D2CF8091B000FF
:100510008F7DF9CF3E2BDACFCF93DF9390E0FC01B4
:10052000E456FF4F249188579F4FFC018491882304
:10053000D1F090E0880F991FFC01EC58FF4FA59176
:10054000B491FC01E258FF4FC591D49161110EC0E6
:100550009FB7F8948C91E22FE0958E238C9328819D
:10056000E223E8839FBFDF91CF9108958FB7F8947E
:10057000EC91E22BEC938FBFF6CF3FB7F8948091CC
:10058000960190919701A0919801B091990126B59B
:10059000A89B05C02F3F19F00196A11DB11D3FBFBB
:1005A000BA2FA92F982F8827BC01CD01620F711D8A
:1005B000811D911D42E0660F771F881F991F4A9584
:1005C000D1F708952FB7F89460919201709193013B
:1005D00080919401909195012FBF08958091FA0127
:1005E0009091FB019827892798274497209118021A
:1005F00030E044E0359527954A95E1F7220F331F07
:10060000220F331F821B930B97FF02C090E080E004
:10061000089520910E0230910C0230930E02209327
:100620000C0220910F0230910D0230930F022093A3
:100630000D02EAEEF1E021A5820F911D25A585A707
:10064000662381F021A7892F9927319721E0E63E83
:10065000F20789F710921C0210921D0280E5809328
:100660001802089511A6EFCF0F931F93CF93DF9336
:1006700070E066517E4F8A01075F1F4F213029F0DD
:10068000223031F48A010250110930E020E003C029
:1006900000E010E09801EB01FA01E230F10558F0BA
:1006A000A991B991BA27AB27BA270A0F1B1F211DA1
:1006B000311D3297F2CFFA01EE7F6E0F7F1F4E177A
:1006C0005F0769F0FB01408150E070E060E0762F49
:1006D000652F542F4427040F151F261F371FA9010C
:1006E00066277727411551056105710519F0222705
:1006F0003327F1CF00951095E82FF0E0E651FE4F3B
:1007000010830183DF91CF911F910F910895EAEE3D
:10071000F1E0108E118E80E4848B158A868B20E0A8
:1007200044E150E06EE088E10C9434038EBD0DB4DA
:1007300007FEFDCF089561E080919A010E9440027A
:1007400078940895F89460E080919A010C944002A6
:100750000F931F93CF93DF93EC018B010E94A203B1
:100760002097B9F08AE30E9496031EBCF801CE01DF
:10077000019739F00DB407FEFDCF2EB51EBC2193B5
:10078000F7CF2197C00FD11F0DB407FEFDCF8EB557
:100790008883DF91CF911F910F910C949B031F933E
:1007A000CF93DF93182FC62FD42F0E94A2038C2F34
:1007B0008F71812B0E9496038D2F0E949603DF91EB
:1007C000CF911F910C949B03CF93C82FC07680913B
:1007D00090018C1799F043E06FE180EA0E94CF030B
:1007E000C09390014C2F50E085E0559547958A9530
:1007F000E1F76FE180E8CF910C94CF03CF9108959A
:10080000CF93DF93C82FD62F0E94E4034D2F6C2F78
:1008100080E4DF91CF910C94CF03CF93DF93C82F67
:10082000D72F0E9400046D2F81E08C0FDF91CF91B4
:100830000C940004CF93C82F0E94E4030E94A203EB
:100840008C2F8F710E94960380E00E949603C7FF51
:1008500003C080E00E949603CEB50E949B038C2FBC
:10086000CF910895CF93DF93EC0140E86FE180E8EA
:100870000E94CF0340E86FE180EA0E94CF034AE084
:100880006CE180EA0E94CF0360E07CE082E00E949D
:100890000D04BE01745F86E00E940D0440E060E03C
:1008A0008AE70E94CF030E94A2032097B1F08AE753
:1008B0000E9496038091EA018EBDEBEEF1E0C651F5
:1008C000DE4FEC17FD0731F081910DB407FEFDCF2F
:1008D0008EBDF7CF0DB407FEFDCF0E949B0348E00D
:1008E0006FE180E80E94CF03D0E0C0E08CE10E947D
:1008F0001A048A7029F42196C83E83E0D807B1F71C
:100900008CE10E941A0481FD03C0C83ED34039F433
:1009100048E06FE180EADF91CF910C94CF03DF9143
:10092000CF9108950F931F93CF93DF938C018896F7
:10093000CAEED1E0988B898B0E9487031AAA1BAA62
:10094000A801445E5F4F22E06AE182E30E94340323
:10095000C801C696DF91CF911F910F910C9432047C
:10096000CF93DF93EB01682F84ED0E940004BE015A
:1009700086ED0E940D048AEE0E941A0480FDFBCFD2
:10098000DF91CF910895CF92DF92EF92FF920F9374
:100990001F938634910568F120910D02233449F5A7
:1009A000C0901802D0901902E0901A02F0901B0239
:1009B0000091AC011091AD012091AE013091AF01D9
:1009C000C016D106E206F306A1F4E4E0F3E0865196
:1009D0009E4F9F012E5F3F4F41815081553319F447
:1009E0005281651771F0F901E40FF11DE817F9075D
:1009F00080F380E01F910F91FF90EF90DF90CF90F8
:100A0000089581E0F7CFE0918E01F0918F019F0171
:100A10002F5F3F4F30938F0120938E018083089585
:100A2000FF920F931F93CF93DF93162FF42E052F72
:100A30000E940305812F0E940305CF2DD02F115056
:100A400020F089910E940305FACFDF91CF911F9189
:100A50000F91FF900895FC0101900020E9F7319774
:100A6000AF01481B590BBC0186EE93E00C94330197
:100A70008F929F92AF92BF92CF92DF92EF92FF92AE
:100A80001F93CF93DF93CDB7DEB7A1970FB6F8943E
:100A9000DEBF0FBECDBFD62E172F0E942B05ED2C2B
:100AA000F12E10E08AE0882E912CA12CB12CF701B8
:100AB00021917F0130E050E040E019A26E01F1E2A7
:100AC000CF0ED11CCA01B901A50194010E943E0EAE
:100AD000605DF60162936F012115310541055105F5
:100AE00089F7309719F0CF010E942B05133029F0B8
:100AF0006EE286EE93E00E94D3011F5F1430B9F6D8
:100B000088E491E00E942B05A1960FB6F894DEBF11
:100B10000FBECDBFDF91CF911F91FF90EF90DF907F
:100B2000CF90BF90AF909F908F900895DC0196E09A
:100B3000FB0101900D929A95E1F70895CF93DF9311
:100B4000EB0144E050E0BC0186E092E00E94800EA0
:100B5000892B49F460E072E0CE010E94960581E0A5
:100B6000DF91CF91089580E0FBCFBC018AEE91E048
:100B70000E9496056DEB71E080EF91E00C94960574
:100B8000DC0194E0FB0101900D929A95E1F7089544
:100B90000F931F93CF938C0182E491E00E94B505DF
:100BA000EAEEF1E088E08487C6E0C58748E050E0DF
:100BB0006CE670E088EF91E00E94350EEAE0F2E02A
:100BC000DF011D92CA95E9F76DEB71E080E092E0DC
:100BD0000E949605B80180E192E00E94C00562EE95
:100BE00073E086E092E00E94C0058AE290E0CF9137
:100BF0001F910F910C94320480EF91E00E94B50593
:100C000064E072E088E092E00E94C00562EE73E06A
:100C100084E092E00E94C0050C948703262F206197
:100C200020931902643021F0009711F481E090E0E4
:100C300061E00E9409031092FA0188E28093FB01AF
:100C40000E94FC0584E080931A0210921B0222E0AD
:100C50004CE150E06AE182E30E94340386E390E0D5
:100C60000C943204CF93DF93EB010E94B505BE01D3
:100C700088E092E00E94C00562EE73E084E092E0BA
:100C8000DF91CF910C94C005EF92FF920F931F93C9
:100C9000CF93DF938C01EAEEF1E086E191E0DF0192
:100CA0009C011D9221503040E1F78091BC01C2E4CB
:100CB000D1E0833011F4C7EAD1E0CE010E941301E4
:100CC000BE01882309F4ACC087EC91E00E94320693
:100CD0008881807F803E91F088819981AA81BB8143
:100CE0008F3F9F4FAF4FBF4F49F044E050E0BE01F0
:100CF00083EC91E00E94800E892B31F462E471E074
:100D00008AEE91E00E94960588E08093F6011092A9
:100D1000F70149E050E064EC70E088EF91E00E9458
:100D2000350E1092FA0181E18093010210920E02B9
:100D300083E480930F0210920C0284E480930D02EE
:100D400010921002109212021092130262E471E0EB
:100D50008AEE91E00E94960581E0809314028093D0
:100D6000150286E0809316028091AC019091AD014E
:100D7000A091AE01B091AF01809318029093190237
:100D8000A0931A02B0931B02C091BC01C33031F48E
:100D900062EE73E080E292E00E94C0056DEB71E0CC
:100DA00080E392E00E94960580E093E090938F01AB
:100DB00080938E01E8E6F0E084910E940305E9E665
:100DC000F0E084910E940305EAE6F0E084910E943D
:100DD0000305EBE6F0E084910E94030585E30E94A1
:100DE000030581E00E94030583E0C11101C081E099
:100DF0000E9403058DE30E94030587E00E9403051E
:100E000081E00E9403058DEBE82E81E0F82EC7E01B
:100E1000C15049F0D7018D917D010E940305F8CFA3
:100E20008DEC91E053CF80910001882371F060E058
:100E300071E0FB0101900020E9F7BF0161507140B2
:100E400040E051E08CE00E9410050115110559F0B9
:100E5000A80164E082E30E94100547EA51E064E0E3
:100E600086E30E94100587E30E94030583E00E9449
:100E7000030581E00E94030583E00E94030586E0EC
:100E80000E9403058FEF0E940305C0918E01D0914F
:100E90008F01C451D240CE014C969093FA018093B9
:100EA000FB010E948703CE01089690931002809365
:100EB0001102AE01405F5F4F21E06AE188E20E94CB
:100EC0003403CE018A96DF91CF911F910F91FF904D
:100ED000EF900C9432041F920F920FB60F921124D0
:100EE0002F933F934F935F936F937F938F939F9332
:100EF000AF93BF93EF93FF9386EE93E00E94B1010F
:100F0000FF91EF91BF91AF919F918F917F916F91E1
:100F10005F914F913F912F910F900FBE0F901F90B7
:100F200018951F920F920FB60F9211242F938F9343
:100F30009F93EF93FF93E091F603F091F703808185
:100F4000E091FC03F091FD0382FD1BC09081809134
:100F5000FF038F5F8F7320910004821741F0E091AF
:100F6000FF03F0E0EA51FC4F958F8093FF03FF9160
:100F7000EF919F918F912F910F900FBE0F901F9027
:100F800018958081F4CF1F920F920FB60F92112403
:100F90002F933F938F939F93AF93BF938091920131
:100FA00090919301A0919401B0919501309191019C
:100FB00023E0230F2D3758F50196A11DB11D209375
:100FC00091018093920190939301A0939401B09327
:100FD00095018091960190919701A0919801B0910F
:100FE00099010196A11DB11D8093960190939701DF
:100FF000A0939801B0939901BF91AF919F918F9168
:101000003F912F910F900FBE0F901F90189526E8DB
:10101000230F0296A11DB11DD2CFCF93DF9300D035
:1010200000D000D0CDB7DEB7789484B5826084BD9F
:1010300084B5816084BD85B5826085BD85B58160DC
:1010400085BD80916E00816080936E00109281005A
:101050008091810082608093810080918100816015
:1010600080938100809180008160809380008091D6
:10107000B10084608093B1008091B0008160809362
:10108000B00080917A00846080937A0080917A0029
:10109000826080937A0080917A00816080937A00E8
:1010A00080917A00806880937A001092C100E0916C
:1010B000F603F091F70382E08083E091F603F0916C
:1010C000F7031082E091F203F091F3031082E091B4
:1010D000F403F091F50380E180831092FE03E09128
:1010E000FA03F091FB0386E08083E091F803F0912E
:1010F000F903808180618083E091F803F091F90326
:10110000808188608083E091F803F091F903808109
:1011100080688083E091F803F091F90380818F7DEE
:1011200080838BE491E00E942B0588E491E00E948B
:101130002B051092E70187E390E0C12CD12C7601BA
:10114000C3940097C1F0FC0123E0F595E7952A953B
:10115000E1F7E556FE4F282F2770B701A60104C01E
:10116000440F551F661F771F2A95D2F72081242B25
:1011700020830197E6CF68E271E08DEB91E00E9459
:10118000960584EF91E09093A3018093A2010CB4A3
:1011900006FC25C061E08AE00E948C0261E08AE0E2
:1011A0000E94400261E08BE00E948C0261E08DE0D1
:1011B0000E948C0260E08CE00E948C0261E08BE077
:1011C0000E94400260E08BE00E94400260E08DE0FF
:1011D0000E94400280E58CBD8DB581608DBD8AE0A6
:1011E00080939A0161E00E948C020E949B034FEF62
:1011F00060E08FEF0E94CF030E94BD026B017C0173
:1012000092E0892E912CA12CB12C0E94BD026C1968
:101210007D098E099F09683E734081059105A8F3F9
:1012200028EEC20E23E0D21EE11CF11C8A9489280C
:101230008A288B2829F0812C912C54018394E5CFA6
:101240000E94A2038DE10E94960380E00E94960313
:101250001EB50E949B03112399F370E060E088E0C3
:101260000E940D0470E060E08CE00E940D046FEFBE
:101270007BE08AE00E940D0460E07CE084E00E9454
:101280000D046FEF71E186E00E940D0466E774E0E3
:1012900084E10E94B00461EB88E30E9400046FE3E4
:1012A00070E388E20E940D0469EF77EF80E30E940B
:1012B0000D0461E080EC0E94000442E362EC80E8EF
:1012C0000E94CF0362E17CE086EC0E940D0462E1A3
:1012D00084EC0E9400046CED75E08AEC0E940D0421
:1012E0006091BD0184EE0E9400046091BE0185EE14
:1012F0000E9400046091BF0182EE0E940004609190
:10130000C00183EE0E9400046091C10180EE0E9442
:1013100000046091C20181EE0E94000460E071E06F
:1013200080E10E94B0048FE10E94E40340EC6BE195
:1013300080E80E94CF0344E06FE180E80E94CF0381
:1013400082E70E941A04863008F08F5F811108C07E
:1013500087E591E00E942B0588E491E00E942B052F
:101360001092E70164E271E082EE93E00E94C00512
:101370001092E5011092E40181E08093E60160E2C1
:1013800071E080EE91E00E94C005E2EEF3E02EED08
:1013900033E043EC51E09191D9018D919D0180950D
:1013A000892BDA018D93AD01B3E0E63EFB0799F797
:1013B00062EE73E08CE791E00E94380560EE71E028
:1013C00082E891E00E9438056BED71E088E891E0D9
:1013D0000E94380514E0E12EFF24F39403E0702E00
:1013E000ECE26E2EF0E65F2EA8E73A2EB6E04B2E2A
:1013F0008091A601882379F06091A4017091A501E4
:101400006115710509F030C16FEF7BE08CE00E943F
:101410000D041092A60189E30E941A0410E000E076
:101420008823C1F16091A4017091A50180E00E9420
:101430000D04BE016F5F7F4F86E090E00E94A8031D
:1014400089819A819093A5018093A4018D819E81C9
:101450008C010078112787FF12C08B819C81049733
:101460000091A2011091A301015011098017910769
:1014700008F48C016AEE71E0C8010E94A803F8012B
:10148000E651FE4F1082F092A60140E46EE180E842
:101490000E94CF038091E701882369F08091BC010D
:1014A000823009F4EAC008F0E2C0882309F46BC175
:1014B000813009F488C10115110509F015C2809128
:1014C000E601857029F18091E4019091E501892B75
:1014D000F9F461E184ED0E94000461E082ED0E9474
:1014E00000048AEE0E941A0480FDFBCF60E082EDCA
:1014F0000E94000489ED0E941A0482FF09C080EE58
:1015000091E00E94C8058091E60188608093E60121
:101510008091E4019091E50101969093E50180931B
:10152000E4018091DF01813009F069C08091E6011A
:1015300081FF65C082E08093DF0180912F018F5F82
:1015400080932F01182F1F7185ED91E00E941301E8
:1015500065ED71E0882309F4C4C187EC91E00E9435
:10156000320608E00093F6011092F70149E050E0DE
:1015700064EC70E088EF91E00E94350E6092FB0110
:10158000409201020E94870310920E0210920F02F5
:101590008BE080930C0210930D02E0E1F2E0DF019A
:1015A0001D920A95E9F780912E01809312028D5FBA
:1015B00080932E015092180282E08093190270925B
:1015C0001A0210921B0210921C0210921D0210921D
:1015D0001E0210921F0280932002E092210280934B
:1015E000220286E28093230222E040E250E06AE198
:1015F00082E30E9434038AE390E00E9432048BED80
:1016000091E00E941301882371F08091DA01811129
:101610000AC08091D901811106C08BED91E00E9432
:10162000C805F092D90185ED91E00E94130188234D
:1016300071F08091D40181110AC08091D301811190
:1016400006C085ED91E00E94C805F092D30180E0CC
:1016500090E0892B09F4CCCE0E949D01882309F4E7
:10166000BFCE0E940000BCCE61507109CFCE833046
:1016700009F455C0843009F01ECF65E0C8010E940E
:10168000C304882309F4CAC08091AB01811108C04A
:1016900088E30E941A04682F6E7F88E30E9400048A
:1016A00064E272E082EE93E00E94C005E4E0F3E0C1
:1016B000C80186519E4F4C016F0192E0C90ED11CAA
:1016C00021808081863009F4FBC008F0BEC08130E3
:1016D00009F4ECC0833009F4EFC0F601E20DF11D0E
:1016E000E815F90548F30E94E2026093B401709393
:1016F000B5018093B6019093B7018091E0018823F2
:1017000059F01092E5011092E401F092E60160EECA
:1017100071E0CB010E94C0057092BC01CCCE8090DC
:10172000B8019090B901A090BA01B090BB012FEF21
:1017300082169206A206B20609F4BDCE0E94E2020B
:101740002091B4013091B5014091B6015091B7019B
:10175000621B730B840B950B681579058A059B0535
:1017600008F4A9CE82EE93E00E944406E092BC0108
:101770000E94E2026093B0017093B1018093B201C4
:101780009093B30198CE0E94E2026093AC017093F3
:10179000AD018093AE019093AF01E2EEF3E0DF0183
:1017A0002E2D1D922A95E9F790E080E00E944406D4
:1017B00088E30E941A04682F616088E30E94000495
:1017C000F092BC01D5CF62E0C8010E94C304882317
:1017D00029F164E272E0CE0101960E94C005E4E0C6
:1017E000F3E0C80186519E4FBF016E5F7F4F21819C
:1017F0003081363361F487EA91E00E94C005CE0162
:1018000001960E94440682E08093BC01B1CFFB01A7
:10181000E20FF11DE817F90738F3F1CF0E94E20259
:101820002091B0013091B1014091B2015091B301CA
:10183000621B730B840B950B613177428105910517
:1018400008F439CE1092BC0136CE8A3331F08F3F86
:1018500009F449CF833309F040CF1092B8011092B8
:10186000B9011092BA011092BB01F601C6010496AB
:1018700020E030E0A9016191542F432F322F22271D
:10188000260F311D411D511D8E179F07A1F72F3FB8
:10189000AFEF3A074A075A07B9F42093B8013093DB
:1018A000B9014093BA015093BB0117CFB6018EED39
:1018B00093E00E94C00511CFB60180EE91E0F9CF10
:1018C000B6018BED91E0F5CFA8EEB3E00E94600E7B
:1018D0006093B8017093B9018093BA019093BB01F2
:1018E000FCCE8DEC91E03BCE0932110508F4AFCE71
:1018F0008091F601883009F0AACE8091F7018630F8
:1019000009F03EC144E050E062EE73E080E192E015
:101910000E94800E892B09F09ACE8091FF018130C0
:1019200029F580EF91E00E94B5051092FE0182E05A
:101930008093FF0160E072E08AE092E00E949605E9
:101940006DEB71E080E092E00E94960566E072E047
:1019500080E192E00E94C00562EE73E086E092E0D2
:101960000E94C0058AE290E00E9432048091E60164
:1019700083FF0DC01091FF01123049F46DEC71E04E
:1019800080EE91E00E949E0581111093E601809106
:10199000DA01811110C08091D901882361F067ECD0
:1019A00071E08BED91E00E949E05882321F0F0927A
:1019B000DA011092D9018091D401811148CE809131
:1019C000D301882309F443CE67EC71E085ED91E003
:1019D0000E949E05882309F43ACEF092D401109219
:1019E000D30135CE0633110508F431CE863009F027
:1019F0002ECE80910E028B3009F04CC044E050E0B6
:101A000065ED71E084E092E00E94800E892B09F080
:101A10001ECE1091190212FF04C085E08093DF01F1
:101A200016CE0E94EE022091DF012230F9F4212F20
:101A300020711271123179F460E090E080E00E9430
:101A40000E0688E1809319027092DF0190E080E039
:101A50000E949204FCCDF092DF010196222311F046
:101A600090E080E064E00E940E06F1CD253009F49C
:101A7000EECD10FF0AC0233009F4E9CD69E00196EC
:101A80000E940E064092DF01E2CD60E0009709F46B
:101A9000DECDE9CF8111DBCD80910F02803509F0D9
:101AA000D6CDD0901902D1FE35C01092FA016092C5
:101AB000FB010E94FC05B2E1B093190260E081E0F5
:101AC00090E00E940903109210021092110280917E
:101AD0002E0180931202109213028D5F80932E01CB
:101AE00082E080932002E092210285E0809322022E
:101AF000109223025092180280931A0230921B0215
:101B000022E040E250E06AE182E30E9434038AE38B
:101B100090E07BC0D4FE9BCD0E94EE029093E90141
:101B20008093E801892B31F18091180290E024E044
:101B3000959587952A95E1F7880F991F880F991F2A
:101B400082960817190708F482CD42E051E06DEC47
:101B500070E080E292E00E94350E60E08091E80142
:101B60009091E9010E940E0629E12093190281E07B
:101B700091E06ECFD0FE6BCD60E090E080E073CF5F
:101B80000932110509F463CD811161CD8091F8010D
:101B9000853409F05CCD44E050E062EE73E088E00B
:101BA00092E00E94800E892BA9F044E050E063ECA3
:101BB00071E088E092E00E94800E892B59F044E0A9
:101BC00050E062E471E088E092E00E94800E892B90
:101BD00009F03DCD80910102813009F003CF809161
:101BE0000C02883009F033CD0E94FC0510920C02E3
:101BF00080910E02883F28F090910F029F5F909392
:101C00000F02885F80930E02C8010E9432041FCD2C
:101C1000E6EEF3E01382128288EE93E0A0E0B0E0FB
:101C200084839583A683B78384E391E09183808343
:101C300085EC90E09587848784EC90E09787868791
:101C400080EC90E0918B808B81EC90E0938B828B89
:101C500082EC90E0958B848B86EC90E0978B868B62
:101C6000118E128E138E148E0895FB01DC0102C0BA
:101C700005900D9241505040D8F70895A1E21A2ED8
:101C8000AA1BBB1BFD010DC0AA1FBB1FEE1FFF1F20
:101C9000A217B307E407F50720F0A21BB30BE40B70
:101CA000F50B661F771F881F991F1A9469F76095B7
:101CB0007095809590959B01AC01BD01CF01089571
:101CC0000E94710EA59F900DB49F900DA49F800D52
:101CD000911D11240895EE0FFF1F0590F491E02D42
:101CE0000994A29FB001B39FC001A39F700D811DF5
:101CF0001124911DB29F700D811D1124911D089515
:101D0000FB01DC0104C08D910190801921F4415048
:0E1D10005040C8F7881B990B0895F894FFCF38
:101D1E0041726475696E6F2D454E4332386A3630A6
:101D2E002D30300000000000000000000000000018
:101D3E00C0A80105C0A801C87469692D30310A0117
:101D4E0000000000D30133016001200291016F01F8
:101D5E008301FFFFFFFFFFFF0D0A000A5B62616355
:101D6E006B536F6F6E5D004661696C656420746FB6
:101D7E00206163636573732045746865726E657464
:101D8E0020636F6E74726F6C6C65720049503A20EE
:0E1D9E00200047573A202000444E533A2000C0
:00000001FF
